:400000000010002011000000310300003103000010B500F095F9C04670B5184C23688022D20213432360182001F0FAF82268144B13402360134A144B1A603022134B1A6031
:40004000103A134B1A60103A124B1A6080231B06114A1360002525601049114A11601149114A1160114A13601149092001F096F8092001F07DF80F4B1D6070BD00010B4007
:40008000FFFFFBFF0600008004010B4008020240140202401802024008010B40FE00008000000240FE0000C04000024080000240311400000C020B4010B572B600240FE0BE
:4000C0002C486200131959000B00411889881A5AC31858880004104300F0FEF80134E4B2012CEDD9234801000C312C3000F0DAF8EE221202204B1A60EE22204B1A60992385
:400100001B041F4A13601F4A13601F4A13601F4A1360802292051E4B1A601E490B783C22934314221343DBB20B701B4A117816230B43DBB21370194A194B1A60FF23194A17
:400140001360194A1360194A1360194A1360D8221201184B1A600722174B1A601D32174B1A60203A164B1A60FFF756FF00F0DAF810BDC0461C1B00000C0001401000014086
:4001800000500F4010500F4020500F4030500F4038500F4001700F4000700F400680000008000440000104401801044000020440180204400803044000040440080404400E
:4001C0001804044010B5064C2378002B07D1054B002B02D0044800E000BF0123237010BDF801002000000000181B0000084B10B5002B03D00749084800E000BF07480368D3
:40020000002B00D110BD064B002BFBD09847F9E700000000FC010020181B0000C00000200000000030B5A1B062B600F0E9FA00F02FFB00F03DFA00F009FD6A460121402035
:4002400000F09AFD00F020F90028FBD10EE0200000F0C8FB10AD63005853200000F01CF9230010335B005853013400E000240F2CEDDD402210A9684601F03CFC00F0A0FB22
:40028000012000F029FF02E0012000F0BFFF00F02FFF0128F8D100F00BFA002000F01CFFD0E7C046F0B50025002711E0BB00C658F3B2FF22964308E06A008A181478A419D0
:4002C000527822700135013BDBB2002BF4D10137042FEBD9F0BDC04610B50A00002101F012FC10BD0C4B1B68002803D080221206134301E05B005B08074A1360074B1B68F8
:40030000002803D080229204134301E0044A1340024A13607047C04680031A4008010B40FFFFFFFD10B50120FFF7DCFF10BDC04610B501F0B3FB03680C2B00D1FEE7FEE7E0
:4003400070B50F4E0F4D13E029686B68AC68002202E001C901C30432A242FAD1E868002202E0002102C304328242FAD11035013E002EE9D101F098FBFFF754FFFEE7C0469A
:4003800001000000E81C000010B500230AE0032B03D89A000949505800E009489900094A885001332F2BF2D9FFF786FE8022D205116801230B43136010BDC0460000000057
:4003C000310300000000002070B516480368DBB2154A13700F24A3431900144D2B780F2213400B43E13293432A78A243134303600F4A104B1A60104A104B1A60104A1168EB
:40040000104B0B40C021C9000B4313600F2000F0B9FE0D490F2000F0C1FE03210F2000F0CFFE70BD00FF0840C002002062F1FF0F00020001080008400008A0010400084092
:4004400010000140FFF0FFFFF109000010B500F07DFE00F05FFE0021002000F063FE0021002000F07BFE00F067FE00F049FE044A136804490B4313600F2000F079FE10BDC5
:400480000400084000100880024B1878012318407047C046140200204000024B181880887047C04614020020F8B5104F3E5C3818037C5D005D19EDB29B00DCB201F016F845
:4004C000B300FB181E6A32680F21A1408A4311000422A2400A435C6B23680721A9408B432360326001F006F8F8BDC0465C1B0000F8B5194A145C13181F7CB900C9B27D0072
:400500007D19EDB2154B185CA300D3181E6A33680F228A4093433360022800D10020012801D1002600E0062600F0E0FFA4000A4B1C19616B0B680722AA4093431A003300E3
:40054000AB4013430B6000F0D5FFA16C0B680122BA4093430B60F8BD5C1B0000FC02002010B5002403E02000FFF7C2FF01340F2CF9D910BD044A11684002C023DB00184012
:40058000084310607047C04604000840CA0807231940063B8B40825C134201D0012000E00020704710B504000134E4B2102C06D0210004484030FFF7E9FF0028F4D02000CD
:4005C00010BDC046C4000020F8B50400234B1B185C229B5C9B00224A9E5801002148FFF7D5FF214B9E4203D88640FF231B041E431E4B185D013880B2002100F093FD1C4B6C
:40060000185D013880B2002100F0A8FD0F2000F0B9FD18480168184B1940184B1B5D184A125D120413430B430360164F3D68164B1D40164B1D430F2000F09AFD2000FFF7AC
:4006400033FF00F053FF04003D60002000F044FF0F4B1E60200000F04DFFF8BD5C1B0000C4000020C4020020FFFFFEFF0C030020CC0200200800084000FF80FFDC02002004
:40068000EC02002004000840FF1FDFFF200020000C00084010B5054B00221A70C1B2243299545D321A70FFF78FFF10BD1402002070B50D4C002323702425FF336355605D15
:4006C000C0B2FFF76FFF6055635DDBB20F2B09D8217801230B43DBB223702423E05CC0B2FFF772FF70BDC0461402002070B50500184B1C68A4B24300174AD3189C80174BA3
:400700001B185C229B5C9B00154A9A58154B9A4208D801001448FFF739FF6B000E4AD31804419C802800FFF7E3FE0F2000F02AFD0E4A11680E4B0B40A02109020B43136028
:400740000C4A11680C4B0B4013600F2000F010FD70BDC0460C000840140200205C1B0000C4000020FFFFFEFFC402002004000840FF1FDFFF0800084000FF80FF10B5CC08C1
:4007800007231940063B8B40DBB2002A04D0041922781343237003E0041922789A43227010BDC04670B50600002400250BE03000FFF770FFFFF768FE0128FBD03000FFF739
:4007C0006BFE24180135002DF1D0A0B270BDC046014B19547047C046FC02002010B5002404E000212000FFF7F3FF01340F2CF8D9FFF7EAFD0020FFF7BDFEFFF7B1FE10BDC0
:4008000010B525230C4AD35C002B05D1FFF7E6FF01212523084AD154FFF718FE00F0AEF901212623044AD154044A13688021C9030B43136010BDC04614020020040008409C
:4008400010B5094B1B5C4100084A8C5A084A8C521018002120240155103401550549C95CD3184022995410BDB81B0000180200203C0200204801002010B50400FFF70AFFAC
:40088000FFF702FE0028FBD12000FFF7D9FF10BD10B5002403E02000FFF7EEFF01340F2CF9D910BDF0B54F4680B482B00400384B1B5C9946374B4A469B5C0193364A4500D6
:4008C000AE5AC1B2354800F0D9FE354BE95A8E4206D30022334B1A55751AADB2012702E08D1BADB20027002F16D12F4B4A469B5C9D4211D92B4B1B5D2C4A1219127C9342C6
:4009000006D32000FFF79CFF0022264B1A5522E00133244A13551EE06B469B889D4206D9214B4A469B5C9D4215D2002F13D10B021B4A91462020A446CC446246125C1343D4
:40094000F3185B1A190A62004E46B152624613540022144B1A556B469E88B5420ED9002F0CD0FF2D05D90E4B1C19FF223023E25409E00B4B1C193023E55404E0084B1C196E
:4009800000223023E25402B004BC9146F0BDC046B81B00001C03002018020020FC0300203C0200202C0300203C0300204801002010B5040000F06AF82000FFF773FF10BD40
:4009C00010B5002409E021000548FFF7DFFD002802D02000FFF7ECFF01340F2CF3D910BD040100204000014B185A70473C02002010B50F2000F0C6FB01221E4B1A601E4B95
:400A00001878C0B2FFF772FE1C4B1B785BB2002B05DA1A4A137801218B43137026E0164C2078C0B2FFF7BEFD20702378DBB20F2B05D8114B1878C0B2FFF7C6FD16E00F4B82
:400A40001A7801218A431A701B785B060ED500220B4B1A7006E00B4AD15C0B4AD1540133074A1370064B1B78012BF4D90F2000F07FFB10BD14000840380200201402002079
:400A800092020020C80200200401002070B582B0154B1C5C154EC1B2154D009533002200144800F069FE335D295D134A1155DB2B03D8DB08114A135514E0EC2B03D81B0905
:400AC0000E4A13550EE0F42B03D85B090B4A135508E0F92B03D89B09084A135502E00022064B1A5502B070BDB81B00005C0300201C030020FC0300203C0300204C030020C7
:400B0000024A136840218B431360704704000840044A1168044B0B40802189000B4313607047C04608000840FFFCFFFC70B5002208E00D498B5C5D080C4CA55401335B0841
:400B40008B54013203789A42F3D30F2000F01AFB074A1168074B0B4007490B4313600F2000F006FB70BDC046DC020020EC02002008000840FFFCFFFC0002000170B5204B62
:400B800010221A705A709A700832DA801D4A9A801D4A9A60FFF7B4FF002304E099001B481B4A88500133164A52789342F6D3002306E00421174AD1540239174AD1540133A1
:400BC0000F2BF6D9FFF7A4FF144D0D4C2900200000F0B4FC200000F0C2FC2900200000F0ADFC200000F0DCFC2000FFF79FFF002403E02000FFF74AFF01340F2CF9D970BD8F
:400C0000FC030020CC040000281C00000000FF0FC4000020CC0200200C0300209A0D000010B50A2000F0A4FA10BDC04610B500F03BF810BD10B5044A1368802109060B433A
:400C40001360FFF7EDFF10BD0000064010B5064B1B78002B04D1FFF7E9FF0122024B1A70FFF7E8FF10BDC046940200200A4B1B68DB050DD5094B1B685B0409D4064B1968A6
:400C8000074A0A401A601A68802149000A431A600222044B1A6070470000064060000640FFFEFFFF6C00064010B500241C4B1C601C4A1D4B1A601D4A11680C230B431360CB
:400CC0001B4B1C4A13601C4A14601C491C4A11601C4A13601C4B1C600A2000F053FA03210A2000F06DFA19490A2000F057FA184B1C60184B1C605222FF32174B1A60174B69
:400D00001C60174B1C60174B1C60174B1C70174B1C70174B1C80174B00221A7010BDC046000006400008004060000640700006400701008000030640040306401000FE00AA
:400D4000100306400002064004020640A90D0000C80E0640880E0640480F0640080F0640C80F0640880F0640280400201A0400201C0400202404002070B506000D00141E68
:400D80000BD00A2000F0FEF9044B1C60044B1E80044B1D800A2000F0EBF970BD20040020260400201804002070B5AC4B1B68002B00D09847AA4B1C88AA4B1D68AA4B1E68A7
:400DC0000223FF331D4242D0A84A13685B005B081360A74B1B789B0620D5A54A137820218B431370117810230B43DBB21370A14B1B68DB060CD4A04B1A78994B1B889A423C
:400E00000CD09B4A117808230B43DBB2137005E0974A117802230B43DBB21370974A1168974B0B4013600023964A1360914A13609549964A116096498A4A1160954A13709A
:400E40008A4A1368802109060B43136003E1F30602D50022904B1A600A23334200D190E08E4B1B685B0756D58D4B1B68894A1278002A16D0012A47D18A4A1288002A0DD03B
:400E80000121894A1160894A12681219DBB213700134844A1388013B138038E0FFF7E6FE35E0834A128893422BD201217E4A1160804A1288934202D2D21A92B200E00022FD
:400EC00078490A80072A03D80121724A117014E0082A09D169490A68A020000202430A600021684A116008E064490A688020800102430A600821634A11605F4A13701C00FD
:400F000005E0FFF7B3FE02E0002000F045F904225E4B1A6035E0594B1B689B0431D5B3070DD5654B1B680F211940544A1068544B03401360012014E00821012011E0594B14
:400F40001988083989B219800829F5D8002008E0564B1B681B19524A1268D2B21A70013401390029F4D1002808D1444A1368802109020B4313600022424B1A600C22434B80
:400F80001A60B30746D5EB0615D500233D4A1360384A1360384B1B789C4201D1022300E00A232B40324A11780B4320218B4313700022384B1A706B062AD52D4A11782023CB
:400FC0000B43DBB213702C4B1B781C003B4A1268D20612D5364A1288D31A324A1380384B1A68802149020A431A601968354A0A401A6010221F4B1A6002E00422214B1A6019
:401000000123314A13602249164A1160264A1360144B1D60144B1B685B071CD5214B1B88002B0CD0214B1B681B191B78DBB2274A136001341B4A1388013B138002E0FF222A
:40104000224B1A60224B1B680F221340082BE5D10132204B1A60024B1C8070BD980200201C040020400F0640000E0640000006401A040020880F06402404002060000640CC
:40108000FF5FFFFFC80F0640ED0F0000C00F0640FF0F000028040020880E0640CC0F0640400306409C0200206C000640200400202604002018040020080306406400064091
:4010C00004020640FFFFFEFF800E06404002064008020640800F0640044A1368DBB201218B430840184310607047C04600000440024B18684009012318407047040004403D
:40110000034A1368802109060B4313607047C04600000240024A13685B005B081360704700000240034A13681B0C1B04034313607047C04600000240034A13688021090648
:401140000B4313607047C04640000240024A13685B005B081360704740000240034A13681B0C1B04034313607047C046400002401F2318401E3B8340014A13607047C04607
:4011800000E100E01F2318401E3B8340014A13607047C04680E100E001BE704770B504000D001F2802D90020FFF7F6FF1034A40080239B059C4664442068256070BDC0462E
:4011C00070B504000E00032902D90020FFF7E4FF1F2C02D90020FFF7DFFF03252540ED00063500F083F9A408A400074B9C46644421680323AB4099430B003100A94019435A
:40120000216000F077F970BD00E400E010B5034B1B7B584300F060F910BDC04678010020F0B557464E46C0B483B0040000F05EF90190E71E2D2F74D83F4B1B78DBB29C4255
:4012400008D83E4B1B78DBB29A463D4B1B78DBB2994631E03B4B1B78DBB29C4208D83A4B1B78DBB29A46394B1B78DBB2994623E0374B1B78DBB29C4208D8364B1B78DBB2FD
:401280009A46354B1B78DBB2994615E0334B1B78DBB29C4208D8324B1B78DBB29A46314B1B78DBB2994607E02F4B1B78DBB29A462E4B1B78DBB299462D4BDE5D2F2E09D9BB
:4012C0002A2C07D919222B4B1A60052000F004F9192503E0274B1D683F231D40B54206D9234BDA5D234B1A60052000F0F5F81F4B9C4664442378DBB21F4A13601F4B524645
:401300001A601F4B4A461A600520FFF77FFFB5420AD2174BDA5D174B1A60052000F0DCF802E00020FFF738FF019800F0E3F803B00CBC91469A46F0BDC0F1FF0FC1F1FF0F04
:40134000C2F1FF0FC3F1FF0FC4F1FF0FC5F1FF0FC6F1FF0FC7F1FF0FC8F1FF0FC9F1FF0FCAF1FF0FCBF1FF0FCCF1FF0FCDF1FF0F941C00002CFF0B4028FF0B401CFF0B4021
:4013800020FF0B40034B1868C0231B02184000D00120704700010B4010B500F0A7F8044A1368C02109020B43136000F0A3F810BD00010B4010B500F099F808490A68084BDF
:4013C0001A408024E40122430A600A6813408022120213430B6000F08DF810BD00010B40FF3FFFFF70B5050000F080F80400FFF7C9FF002803D0FFF7DDFF012100E00021F1
:4014000008482840084A1568084B2B40184310601368012901D1FFF7BFFF200000F06AF870BDC0460404040010020B40FBFBFBFF10B5244B1B685B0715D5234B1B685B071D
:401440000ED5224BD969042001401F4C22688A432260DA698243DA611B69002B00D098470420FFF7BFFF174B1B685B0518D5164B1B685B0510D5154BD9698022D2001140F6
:40148000114802688A430260D969114A0A40DA615B69002B00D098478020C000FFF7A2FF084B1B685B030CD5074B1B685B0304D5064B9B69002B00D098478020C002FFF7DB
:4014C00091FF10BD10020B408C010020A0020020FFFBFFFF000000000230800804D0C0460138FDD1C046C046C0467047EFF3108072B6704780F310887047C046F7B59C18EE
:401500000023071C08268025019100922370237800982B432370BB689B6C9847019B984202D22378AB432370013E6D08002EEED12378F82B01D9F8232370F7BD70B5051C57
:401540000E1C00242B789C4208D2AB68221C281C311C1B68FFF7D2FF0134F3E770BD38B5051C00242B789C4219D2AA6813681B5DDB080F2B00D90F23D16BD268C95C11558E
:40158000AA68042B04D9936D906B211C012203E0936D906B211C002298470134E2E738BDF0B5041C002687B063789E4262D2A3685A6C925D0392002A01D1013203921A6CF3
:4015C000925D019201992278914251D29A689B69515C0F221140B2000492002205910499019D5A50019B5B000293039B019A9B189D423DD2A768E388A0885843FB68595D69
:4016000000F060F93B68595D00F0D2F8059B5843194B40005A2802D95B084008FAE7BA6904991B0C1B045350A36882085B6B01215855A368C008DB69029F5A550F22A36810
:4016400049421B6A5855A3685B6A5A55A368986AC1530021D86AC153186B9B68C1535B19197801350A401A703B1C02330293BCE7013699E707B0F0BD0000FFFFF0B585687E
:401680004E002B6B925B9B191C8887B0141B0094AC6A1A80A45B6B6A0294EC6A5F5CA45B2B6A03946C6B7F00645C5B180494AC680193645C1B780594009CE40FA4460F2450
:4016C000251C6744009C3D40AC46E51764196C409C4203D2012B05D0013B00E00133FF273F2B00D89F00019D2B7065460F2D29D0002D24D0BC4225D8059C029F240900948B
:40170000974200D9171C039D954200D2151C009A092A01D8141C01343A1C0A2C14D1EA1B934206D9049A92089A42924152429B1A00E001338268D26953543A1C04E0151C9A
:40174000644601E0151C00246746836824015B6A5F5483689F6ABA53DA6A9B6895530F225B181D782A401A7083689B6859180B781C430C7007B0F0BD70B58068446BC069F1
:40178000655C405CFF213F2801D88100C9B246B2FF24002E01DB4000C4B28D4201D9291C6C08012081439954049B9C5470BD0000002243088B4274D303098B425FD3030A0C
:4017C0008B4244D3030B8B4228D3030C8B420DD3FF22090212BA030C8B4202D31212090265D0030B8B4219D300E0090AC30B8B4201D3CB03C01A5241830B8B4201D38B0345
:40180000C01A5241430B8B4201D34B03C01A5241030B8B4201D30B03C01A5241C30A8B4201D3CB02C01A5241830A8B4201D38B02C01A5241430A8B4201D34B02C01A5241EF
:40184000030A8B4201D30B02C01A5241CDD2C3098B4201D3CB01C01A524183098B4201D38B01C01A524143098B4201D34B01C01A524103098B4201D30B01C01A5241C3083E
:401880008B4201D3CB00C01A524183088B4201D38B00C01A524143088B4201D34B00C01A5241411A00D20146524110467047FFE701B5002000F0F0F802BDC0460029F7D02A
:4018C00076E7704703460B437FD4002243088B4274D303098B425FD3030A8B4244D3030B8B4228D3030C8B420DD3FF22090212BA030C8B4202D31212090265D0030B8B42F3
:4019000019D300E0090AC30B8B4201D3CB03C01A5241830B8B4201D38B03C01A5241430B8B4201D34B03C01A5241030B8B4201D30B03C01A5241C30A8B4201D3CB02C01A0B
:401940005241830A8B4201D38B02C01A5241430A8B4201D34B02C01A5241030A8B4201D30B02C01A5241CDD2C3098B4201D3CB01C01A524183098B4201D38B01C01A524171
:4019800043098B4201D34B01C01A524103098B4201D30B01C01A5241C3088B4201D3CB00C01A524183088B4201D38B00C01A524143088B4201D34B00C01A5241411A00D2C2
:4019C00001465241104670475DE0CA0F00D04942031000D34042534000229C4603098B422DD3030A8B4212D3FC22890112BA030A8B420CD3890192118B4208D389019211C9
:401A00008B4204D389013AD0921100E08909C3098B4201D3CB01C01A524183098B4201D38B01C01A524143098B4201D34B01C01A524103098B4201D30B01C01A5241C308F6
:401A40008B4201D3CB00C01A524183088B4201D38B00C01A5241D9D243088B4201D34B00C01A5241411A00D20146634652415B10104601D34042002B00D549427047634668
:401A80005B1000D3404201B5002000F005F802BD0029F8D016E770477047C046014B18687047C046F00100200E4B70B500251E000D4CE41AA410A54204D0AB00F35898478C
:401AC0000135F8E700F0FEF8084B00251E00084CE41AA410A54204D0AB00F35898470135F8E770BDD01C0000D01C0000D01C0000D81C0000002310B59A4203D0CC5CC454EE
:401B00000133F9E710BD03008218934202D019700133FAE7704700000000000000300F40000400400F40000438803E4058045F011801B4016C407008DC036102A102B44850
:401B4000B502D802EC08000004300F4001310F4001330F4003420F4006430F400101010101010101020202020202020200010203040506070001020304050607000001409C
:401B800004000140080001400C00014010000140080004400801044008020440080304400804044000000440000104400002044000030440000404400001020304050607F9
:401BC00008090A0B0C0D0E0F01000000020000000400000008000000100000002000000040000000800000000100000002000000040000000800000010000000200000004B
:401C0000400000008000000001010101010101010101010101010101000102030405060708090A0B0C0D0E0FDC020020EC02002068010020CC0200200C030020B81B0000D7
:401C4000C4000020AC0300206C0300207C030020DC0300208C030020BC03002008040020C4020020841C0000181C0000081C0000A5070000C9050000990400008D05000043
:401C80007D07000001010102020202040404040404040404030405060708090A0B0C0E0F101112131415161718191B1C1D1E1F2021222325262728292A2B2E2F30313233EA
:401CC00034354300F8B5C046F8BC08BC9E467047ED01000089030000F8B5C046F8BC08BC9E467047C5010000F81C0000C00000203801000038020000000000000000FF0FF7
:401D00000000FF0F0000FF0F0000FF0F0000FF0F0000FF0F0000FF0F0000FF0F0000FF0F0000FF0F0000FF0F0000FF0F0000FF0F0000FF0F0000FF0F0000FF0FFFFF0000D3
:401D4000080104400801044008010440080104400801044008010440080104400801044008020440080204400802044008020440080204400802044008020440080204408B
:401D8000050505050505050505050505050505051E1E1E1E1E1E1E1E1E1E1E1E1E1E1E1E02020202020202020202020202020202010000000000E02EC05D0000180000008F
:401DC00000366E01040404000000000000000000000000000000000000000000000000000000000000000000C21C0000000000000000000000000000000000000000000054
:401E000000000000000000000000000000000000000000000000000000000000000000000000000000000000900100200000000000000000000000000000000000000000F1
:401E40000000000000000000000000000000000000000000000000000000000000000000000000000000000000000000000000000000000000000000000000000000000062
:401E80000000000000000000000000000000000000000000000000000000000000000000000000000000000000000000000000000000000000000000000000000000000022
:401EC00000000000000000000000000000000000000000000000000000000000000000000000000000000000000000000000000000000000000000000000000000000000E2
:401F000000000000000000000000000000000000000000000000000000000000000000000000000000000000000000000000000000000000000000000000000000000000A1
:0200000490303A
:0200000043CDEE
:0200000490402A
:200000000000000000000000000000000000000000000000000000000000000000000000E0
:0200000490501A
:0C000000000204C81193110104D15560E6
:0200000490600A
:0100000001FE
:00000001FF